{
    "abi": [
        {
            "inputs": [
                {
                    "internalType": "uint256",
                    "name": "_initialFee",
                    "type": "uint256"
                }
            ],
            "stateMutability": "nonpayable",
            "type": "constructor"
        },
        {
            "anonymous": false,
            "inputs": [
                {
                    "indexed": true,
                    "internalType": "address",
                    "name": "donor",
                    "type": "address"
                },
                {
                    "indexed": true,
                    "internalType": "address",
                    "name": "beneficiary",
                    "type": "address"
                },
                {
                    "indexed": false,
                    "internalType": "uint256",
                    "name": "amount",
                    "type": "uint256"
                }
            ],
            "name": "DonationReceived",
            "type": "event"
        },
        {
            "anonymous": false,
            "inputs": [
                {
                    "indexed": true,
                    "internalType": "address",
                    "name": "beneficiary",
                    "type": "address"
                },
                {
                    "indexed": false,
                    "internalType": "uint256",
                    "name": "amount",
                    "type": "uint256"
                }
            ],
            "name": "FundsWithdrawn",
            "type": "event"
        },
        {
            "anonymous": false,
            "inputs": [
                {
                    "indexed": true,
                    "internalType": "address",
                    "name": "owner",
                    "type": "address"
                },
                {
                    "indexed": false,
                    "internalType": "uint256",
                    "name": "amount",
                    "type": "uint256"
                }
            ],
            "name": "PlatformFeeWithdrawn",
            "type": "event"
        },
        {
            "inputs": [
                {
                    "internalType": "address",
                    "name": "",
                    "type": "address"
                }
            ],
            "name": "beneficiaryBalances",
            "outputs": [
                {
                    "internalType": "uint256",
                    "name": "",
                    "type": "uint256"
                }
            ],
            "stateMutability": "view",
            "type": "function",
            "constant": true
        },
        {
            "inputs": [
                {
                    "internalType": "address",
                    "name": "",
                    "type": "address"
                },
                {
                    "internalType": "uint256",
                    "name": "",
                    "type": "uint256"
                }
            ],
            "name": "beneficiaryDonations",
            "outputs": [
                {
                    "internalType": "address",
                    "name": "donor",
                    "type": "address"
                },
                {
                    "internalType": "uint256",
                    "name": "amount",
                    "type": "uint256"
                },
                {
                    "internalType": "uint256",
                    "name": "timestamp",
                    "type": "uint256"
                }
            ],
            "stateMutability": "view",
            "type": "function",
            "constant": true
        },
        {
            "inputs": [],
            "name": "owner",
            "outputs": [
                {
                    "internalType": "address",
                    "name": "",
                    "type": "address"
                }
            ],
            "stateMutability": "view",
            "type": "function",
            "constant": true
        },
        {
            "inputs": [],
            "name": "platformFee",
            "outputs": [
                {
                    "internalType": "uint256",
                    "name": "",
                    "type": "uint256"
                }
            ],
            "stateMutability": "view",
            "type": "function",
            "constant": true
        },
        {
            "inputs": [],
            "name": "totalDonations",
            "outputs": [
                {
                    "internalType": "uint256",
                    "name": "",
                    "type": "uint256"
                }
            ],
            "stateMutability": "view",
            "type": "function",
            "constant": true
        },
        {
            "inputs": [
                {
                    "internalType": "address",
                    "name": "_beneficiary",
                    "type": "address"
                }
            ],
            "name": "donate",
            "outputs": [],
            "stateMutability": "payable",
            "type": "function",
            "payable": true
        },
        {
            "inputs": [],
            "name": "withdraw",
            "outputs": [],
            "stateMutability": "nonpayable",
            "type": "function"
        },
        {
            "inputs": [],
            "name": "withdrawPlatformFees",
            "outputs": [],
            "stateMutability": "nonpayable",
            "type": "function"
        },
        {
            "inputs": [
                {
                    "internalType": "uint256",
                    "name": "_newFee",
                    "type": "uint256"
                }
            ],
            "name": "setPlatformFee",
            "outputs": [],
            "stateMutability": "nonpayable",
            "type": "function"
        },
        {
            "inputs": [
                {
                    "internalType": "address",
                    "name": "_beneficiary",
                    "type": "address"
                }
            ],
            "name": "getBeneficiaryBalance",
            "outputs": [
                {
                    "internalType": "uint256",
                    "name": "",
                    "type": "uint256"
                }
            ],
            "stateMutability": "view",
            "type": "function",
            "constant": true
        },
        {
            "inputs": [
                {
                    "internalType": "address",
                    "name": "_beneficiary",
                    "type": "address"
                }
            ],
            "name": "getDonationCount",
            "outputs": [
                {
                    "internalType": "uint256",
                    "name": "",
                    "type": "uint256"
                }
            ],
            "stateMutability": "view",
            "type": "function",
            "constant": true
        },
        {
            "inputs": [
                {
                    "internalType": "address",
                    "name": "_beneficiary",
                    "type": "address"
                },
                {
                    "internalType": "uint256",
                    "name": "_index",
                    "type": "uint256"
                }
            ],
            "name": "getDonationDetails",
            "outputs": [
                {
                    "internalType": "address",
                    "name": "donor",
                    "type": "address"
                },
                {
                    "internalType": "uint256",
                    "name": "amount",
                    "type": "uint256"
                },
                {
                    "internalType": "uint256",
                    "name": "timestamp",
                    "type": "uint256"
                }
            ],
            "stateMutability": "view",
            "type": "function",
            "constant": true
        },
        {
            "inputs": [],
            "name": "getContractBalance",
            "outputs": [
                {
                    "internalType": "uint256",
                    "name": "",
                    "type": "uint256"
                }
            ],
            "stateMutability": "view",
            "type": "function",
            "constant": true
        }
    ],
    "bytecode": "0x60806040523480156200001157600080fd5b5060405162001516380380620015168339818101604052810190620000379190620000c5565b336000806101000a81548173ffffffffffffffffffffffffffffffffffffffff021916908373ffffffffffffffffffffffffffffffffffffffff1602179055508060018190555050620000f7565b600080fd5b6000819050919050565b6200009f816200008a565b8114620000ab57600080fd5b50565b600081519050620000bf8162000094565b92915050565b600060208284031215620000de57620000dd62000085565b5b6000620000ee84828501620000ae565b91505092915050565b61140f80620001076000396000f3fe6080604052600436106100c15760003560e01c80635664865a1161007f5780638dd5685e116100595780638dd5685e1461025c578063c522bcab1461029b578063d0b7830b146102d8578063de2ed893146102ef576100c1565b80635664865a146101c95780636f9fb98a146102065780638da5cb5b14610231576100c1565b8062362a95146100c657806307bcb6ef146100e257806312e8e2c31461011f57806326232a2e146101485780633ccfd60b146101735780635626f9a21461018a575b600080fd5b6100e060048036038101906100db9190610d2d565b61031a565b005b3480156100ee57600080fd5b5061010960048036038101906101049190610d2d565b6105ca565b6040516101169190610d73565b60405180910390f35b34801561012b57600080fd5b5061014660048036038101906101419190610dba565b610613565b005b34801561015457600080fd5b5061015d6106f0565b60405161016a9190610d73565b60405180910390f35b34801561017f57600080fd5b506101886106f6565b005b34801561019657600080fd5b506101b160048036038101906101ac9190610de7565b610860565b6040516101c093929190610e36565b60405180910390f35b3480156101d557600080fd5b506101f060048036038101906101eb9190610d2d565b6108c7565b6040516101fd9190610d73565b60405180910390f35b34801561021257600080fd5b5061021b6108df565b6040516102289190610d73565b60405180910390f35b34801561023d57600080fd5b506102466108e7565b6040516102539190610e6d565b60405180910390f35b34801561026857600080fd5b50610283600480360381019061027e9190610de7565b61090b565b60405161029293929190610e36565b60405180910390f35b3480156102a757600080fd5b506102c260048036038101906102bd9190610d2d565b610a89565b6040516102cf9190610d73565b60405180910390f35b3480156102e457600080fd5b506102ed610ad5565b005b3480156102fb57600080fd5b50610304610c95565b6040516103119190610d73565b60405180910390f35b6000341161035d576040517f08c379a000000000000000000000000000000000000000000000000000000000815260040161035490610f0b565b60405180910390fd5b600073ffffffffffffffffffffffffffffffffffffffff168173ffffffffffffffffffffffffffffffffffffffff16036103cc576040517f08c379a00000000000000000000000000000000000000000000000000000000081526004016103c390610f9d565b60405180910390fd5b6000612710600154346103df9190610fec565b6103e9919061105d565b9050600081346103f9919061108e565b905080600360008573ffffffffffffffffffffffffffffffffffffffff1673ffffffffffffffffffffffffffffffffffffffff168152602001908152602001600020600082825461044a91906110c2565b92505081905550600460008473ffffffffffffffffffffffffffffffffffffffff1673ffffffffffffffffffffffffffffffffffffffff16815260200190815260200160002060405180606001604052803373ffffffffffffffffffffffffffffffffffffffff16815260200183815260200142815250908060018154018082558091505060019003906000526020600020906003020160009091909190915060008201518160000160006101000a81548173ffffffffffffffffffffffffffffffffffffffff021916908373ffffffffffffffffffffffffffffffffffffffff16021790555060208201518160010155604082015181600201555050346002600082825461055991906110c2565b925050819055508273ffffffffffffffffffffffffffffffffffffffff163373ffffffffffffffffffffffffffffffffffffffff167f509fb5d764cf5e98b9f02a3d86350f8085cedb516140098d2d6fc2eb6256ac24836040516105bd9190610d73565b60405180910390a3505050565b6000600360008373ffffffffffffffffffffffffffffffffffffffff1673ffffffffffffffffffffffffffffffffffffffff168152602001908152602001600020549050919050565b60008054906101000a900473ffffffffffffffffffffffffffffffffffffffff1673ffffffffffffffffffffffffffffffffffffffff163373ffffffffffffffffffffffffffffffffffffffff16146106a1576040517f08c379a000000000000000000000000000000000000000000000000000000000815260040161069890611168565b60405180910390fd5b6103e88111156106e6576040517f08c379a00000000000000000000000000000000000000000000000000000000081526004016106dd906111fa565b60405180910390fd5b8060018190555050565b60015481565b60003390506000600360008373ffffffffffffffffffffffffffffffffffffffff1673ffffffffffffffffffffffffffffffffffffffff16815260200190815260200160002054905060008111610782576040517f08c379a00000000000000000000000000000000000000000000000000000000081526004016107799061128c565b60405180910390fd5b6000600360008473ffffffffffffffffffffffffffffffffffffffff1673ffffffffffffffffffffffffffffffffffffffff168152602001908152602001600020819055508173ffffffffffffffffffffffffffffffffffffffff166108fc829081150290604051600060405180830381858888f1935050505015801561080d573d6000803e3d6000fd5b508173ffffffffffffffffffffffffffffffffffffffff167feaff4b37086828766ad3268786972c0cd24259d4c87a80f9d3963a3c3d999b0d826040516108549190610d73565b60405180910390a25050565b6004602052816000526040600020818154811061087c57600080fd5b9060005260206000209060030201600091509150508060000160009054906101000a900473ffffffffffffffffffffffffffffffffffffffff16908060010154908060020154905083565b60036020528060005260406000206000915090505481565b600047905090565b60008054906101000a900473ffffffffffffffffffffffffffffffffffffffff1681565b6000806000600460008673ffffffffffffffffffffffffffffffffffffffff1673ffffffffffffffffffffffffffffffffffffffff168152602001908152602001600020805490508410610994576040517f08c379a000000000000000000000000000000000000000000000000000000000815260040161098b906112f8565b60405180910390fd5b6000600460008773ffffffffffffffffffffffffffffffffffffffff1673ffffffffffffffffffffffffffffffffffffffff16815260200190815260200160002085815481106109e7576109e6611318565b5b90600052602060002090600302016040518060600160405290816000820160009054906101000a900473ffffffffffffffffffffffffffffffffffffffff1673ffffffffffffffffffffffffffffffffffffffff1673ffffffffffffffffffffffffffffffffffffffff168152602001600182015481526020016002820154815250509050806000015181602001518260400151935093509350509250925092565b6000600460008373ffffffffffffffffffffffffffffffffffffffff1673ffffffffffffffffffffffffffffffffffffffff168152602001908152602001600020805490509050919050565b60008054906101000a900473ffffffffffffffffffffffffffffffffffffffff1673ffffffffffffffffffffffffffffffffffffffff163373ffffffffffffffffffffffffffffffffffffffff1614610b63576040517f08c379a0000000000000000000000000000000000000000000000000000000008152600401610b5a90611168565b60405180910390fd5b6000610b6d610c9b565b47610b78919061108e565b905060008111610bbd576040517f08c379a0000000000000000000000000000000000000000000000000000000008152600401610bb4906113b9565b60405180910390fd5b60008054906101000a900473ffffffffffffffffffffffffffffffffffffffff1673ffffffffffffffffffffffffffffffffffffffff166108fc829081150290604051600060405180830381858888f19350505050158015610c23573d6000803e3d6000fd5b5060008054906101000a900473ffffffffffffffffffffffffffffffffffffffff1673ffffffffffffffffffffffffffffffffffffffff167fd116803f8b8538a601b6096e8d1196e3ce3ef43dec6dbbe4cd4e5c69dd171d8b82604051610c8a9190610d73565b60405180910390a250565b60025481565b6000612710600154600254610cb09190610fec565b610cba919061105d565b47610cc5919061108e565b905090565b600080fd5b600073ffffffffffffffffffffffffffffffffffffffff82169050919050565b6000610cfa82610ccf565b9050919050565b610d0a81610cef565b8114610d1557600080fd5b50565b600081359050610d2781610d01565b92915050565b600060208284031215610d4357610d42610cca565b5b6000610d5184828501610d18565b91505092915050565b6000819050919050565b610d6d81610d5a565b82525050565b6000602082019050610d886000830184610d64565b92915050565b610d9781610d5a565b8114610da257600080fd5b50565b600081359050610db481610d8e565b92915050565b600060208284031215610dd057610dcf610cca565b5b6000610dde84828501610da5565b91505092915050565b60008060408385031215610dfe57610dfd610cca565b5b6000610e0c85828601610d18565b9250506020610e1d85828601610da5565b9150509250929050565b610e3081610cef565b82525050565b6000606082019050610e4b6000830186610e27565b610e586020830185610d64565b610e656040830184610d64565b949350505050565b6000602082019050610e826000830184610e27565b92915050565b600082825260208201905092915050565b7feab8b0ebb680eab888ec9d802030657468eba5bc20eb8498ec96b4ec95bc20ed60008201527f95a9eb8b88eb8ba42e0000000000000000000000000000000000000000000000602082015250565b6000610ef5602983610e88565b9150610f0082610e99565b604082019050919050565b60006020820190508181036000830152610f2481610ee8565b9050919050565b7fec9ca0ed9aa8ed9598eca78020ec958aec9d8020eca3bcec868cec9e85eb8b8860008201527feb8ba42e00000000000000000000000000000000000000000000000000000000602082015250565b6000610f87602483610e88565b9150610f9282610f2b565b604082019050919050565b60006020820190508181036000830152610fb681610f7a565b9050919050565b7f4e487b7100000000000000000000000000000000000000000000000000000000600052601160045260246000fd5b6000610ff782610d5a565b915061100283610d5a565b925082820261101081610d5a565b9150828204841483151761102757611026610fbd565b5b5092915050565b7f4e487b7100000000000000000000000000000000000000000000000000000000600052601260045260246000fd5b600061106882610d5a565b915061107383610d5a565b9250826110835761108261102e565b5b828204905092915050565b600061109982610d5a565b91506110a483610d5a565b92508282039050818111156110bc576110bb610fbd565b5b92915050565b60006110cd82610d5a565b91506110d883610d5a565b92508282019050808211156110f0576110ef610fbd565b5b92915050565b7f6f776e6572eba78c20ec9db420ed95a8ec889820ed98b8ecb69c20eab080eb8a60008201527fa5ed95a9eb8b88eb8ba400000000000000000000000000000000000000000000602082015250565b6000611152602a83610e88565b915061115d826110f6565b604082019050919050565b6000602082019050818103600083015261118181611145565b9050919050565b7fec8898ec8898eba38ceb8a9420ecb59ceb8c80203525eab98ceca780eba78c2060008201527fec84a4eca09520eab080eb8aa5ed95a9eb8b88eb8ba42e000000000000000000602082015250565b60006111e4603783610e88565b91506111ef82611188565b604082019050919050565b60006020820190508181036000830152611213816111d7565b9050919050565b7fec9db8ecb69ced95a020eab8b0ebb680eab888ec9db420ec9786ec8ab5eb8b8860008201527feb8ba42e00000000000000000000000000000000000000000000000000000000602082015250565b6000611276602483610e88565b91506112818261121a565b604082019050919050565b600060208201905081810360008301526112a581611269565b9050919050565b7f496e76616c696420646f6e6174696f6e20696e64657800000000000000000000600082015250565b60006112e2601683610e88565b91506112ed826112ac565b602082019050919050565b60006020820190508181036000830152611311816112d5565b9050919050565b7f4e487b7100000000000000000000000000000000000000000000000000000000600052603260045260246000fd5b7fed948ceb9eabed8fbc20ec8898ec8898eba38ceab08020ec9786ec8ab5eb8b8860008201527feb8ba42e00000000000000000000000000000000000000000000000000000000602082015250565b60006113a3602483610e88565b91506113ae82611347565b604082019050919050565b600060208201905081810360008301526113d281611396565b905091905056fea2646970667358221220e967ca70c1bdc31c1c9f1a5af9a7e011fa398ad43b69591d0bebabca496f114b64736f6c63430008130033",
    "immutableReferences": {},
    "source": "// SPDX-License-Identifier: MIT\r\npragma solidity ^0.8.19;\r\n\r\ncontract SimpleDonationPlatform {\r\n    // \r\n    address public owner;\r\n    uint256 public platformFee; //  (100 1  ,100=1%)\r\n    uint256 public totalDonations;\r\n\r\n    //   \r\n    struct Donation{\r\n        address donor;\r\n        uint256 amount;\r\n        uint256 timestamp;\r\n    }\r\n\r\n    //   \r\n    mapping(address=> uint256) public beneficiaryBalances;\r\n\r\n    //  \r\n    mapping(address=> Donation[]) public beneficiaryDonations;\r\n\r\n    //\r\n    event DonationReceived(address indexed donor, address indexed beneficiary,\r\n    uint256 amount);\r\n    event FundsWithdrawn(address indexed beneficiary, uint256 amount);\r\n    event PlatformFeeWithdrawn(address indexed owner,uint256 amount);\r\n\r\n    //\r\n    constructor(uint256 _initialFee){\r\n        owner=msg.sender;\r\n        platformFee=_initialFee; //  \r\n    }\r\n\r\n    //   modifier\r\n    modifier onlyOwner(){\r\n        require(msg.sender==owner, unicode\"owner    \");\r\n        _;\r\n    }\r\n\r\n    // -    \r\n    function donate(address _beneficiary) public payable{\r\n        require(msg.value>0,unicode\" 0eth  .\");\r\n        require(_beneficiary !=address(0),unicode\"  .\");\r\n\r\n        //  (100 1% )\r\n        uint256 fee=(msg.value * platformFee) /10000;\r\n        uint256 donationAmount = msg.value-fee;\r\n\r\n        //   \r\n        beneficiaryBalances[_beneficiary]+=donationAmount;\r\n\r\n        //   \r\n        beneficiaryDonations[_beneficiary].push(\r\n            Donation({\r\n                donor: msg.sender,\r\n                amount: donationAmount,\r\n                timestamp: block.timestamp\r\n            })\r\n\r\n        );\r\n\r\n        totalDonations+=msg.value;\r\n        emit DonationReceived(msg.sender,_beneficiary,donationAmount);\r\n    }\r\n\r\n    //   \r\n    function withdraw() public {\r\n        address beneficiary = msg.sender;\r\n        uint256 amount = beneficiaryBalances[beneficiary];\r\n        \r\n        require(amount > 0, unicode\"  .\");\r\n        \r\n        //   (  )\r\n        beneficiaryBalances[beneficiary] = 0;\r\n        \r\n        //  \r\n        payable(beneficiary).transfer(amount);\r\n        \r\n        emit FundsWithdrawn(beneficiary, amount);\r\n    }\r\n\r\n    //   \r\n    function withdrawPlatformFees() public onlyOwner {\r\n        uint256 platformBalance = address(this).balance - getTotalBeneficiaryBalances();\r\n        require(platformBalance > 0, unicode\"  .\");\r\n        \r\n        payable(owner).transfer(platformBalance);\r\n        \r\n        emit PlatformFeeWithdrawn(owner, platformBalance);\r\n    }\r\n\r\n    //  (onlyOwner)\r\n    function setPlatformFee(uint256 _newFee) public onlyOwner{\r\n        require(_newFee<=1000,unicode\"  5%  .\"); // 5%\r\n        platformFee=_newFee;\r\n    }\r\n\r\n    //     - \r\n    function getTotalBeneficiaryBalances() private view returns (uint256){\r\n        return address(this).balance-(totalDonations*platformFee/10000);\r\n\r\n    }\r\n\r\n    //    \r\n    function getBeneficiaryBalance(address _beneficiary) public view returns (uint256) {\r\n        return beneficiaryBalances[_beneficiary];\r\n    }\r\n\r\n    //     \r\n    function getDonationCount(address _beneficiary) public view returns (uint256){\r\n         return beneficiaryDonations[_beneficiary].length;\r\n    }\r\n\r\n    //      \r\n    function getDonationDetails(address _beneficiary, uint256 _index) public view returns (\r\n        address donor,\r\n        uint256 amount,\r\n        uint256 timestamp\r\n    ) {\r\n        //  \r\n        require(_index < beneficiaryDonations[_beneficiary].length, \"Invalid donation index\");\r\n        \r\n        //    \r\n        Donation memory donation = beneficiaryDonations[_beneficiary][_index];\r\n\r\n        // \r\n        return (donation.donor, donation.amount, donation.timestamp);\r\n    }\r\n\r\n\r\n    //    \r\n        function getContractBalance() public view returns (uint256) {\r\n            return address(this).balance;\r\n        }\r\n\r\n}",
    "sourcePath": "D:\\BlockChain\\contracts\\SimpleDonationPlatform.sol",
    "compiler": {
        "name": "solc",
        "version": "0.8.19+commit.7dd6d404.Emscripten.clang"
    },
    "schemaVersion": "3.4.4",
    "updatedAt": "2025-05-21T04:38:46.969Z",
    "networkType": "ethereum",
    "devdoc": {
        "kind": "dev",
        "methods": {},
        "version": 1
    },
    "userdoc": {
        "kind": "user",
        "methods": {},
        "version": 1
    }
}