{
  "contractName": "DonationPlatform",
  "abi": [
    {
      "inputs": [
        {
          "internalType": "uint256",
          "name": "_initialFee",
          "type": "uint256"
        }
      ],
      "stateMutability": "nonpayable",
      "type": "constructor"
    },
    {
      "anonymous": false,
      "inputs": [
        {
          "indexed": true,
          "internalType": "address",
          "name": "owner",
          "type": "address"
        },
        {
          "indexed": true,
          "internalType": "address",
          "name": "approved",
          "type": "address"
        },
        {
          "indexed": true,
          "internalType": "uint256",
          "name": "tokenId",
          "type": "uint256"
        }
      ],
      "name": "Approval",
      "type": "event"
    },
    {
      "anonymous": false,
      "inputs": [
        {
          "indexed": true,
          "internalType": "address",
          "name": "owner",
          "type": "address"
        },
        {
          "indexed": true,
          "internalType": "address",
          "name": "operator",
          "type": "address"
        },
        {
          "indexed": false,
          "internalType": "bool",
          "name": "approved",
          "type": "bool"
        }
      ],
      "name": "ApprovalForAll",
      "type": "event"
    },
    {
      "anonymous": false,
      "inputs": [
        {
          "indexed": false,
          "internalType": "uint256",
          "name": "_fromTokenId",
          "type": "uint256"
        },
        {
          "indexed": false,
          "internalType": "uint256",
          "name": "_toTokenId",
          "type": "uint256"
        }
      ],
      "name": "BatchMetadataUpdate",
      "type": "event"
    },
    {
      "anonymous": false,
      "inputs": [
        {
          "indexed": false,
          "internalType": "enum DonationPlatform.DonationCategory",
          "name": "category",
          "type": "uint8"
        },
        {
          "indexed": false,
          "internalType": "string",
          "name": "imageUrl",
          "type": "string"
        }
      ],
      "name": "CategoryImageUpdated",
      "type": "event"
    },
    {
      "anonymous": false,
      "inputs": [
        {
          "indexed": true,
          "internalType": "address",
          "name": "donor",
          "type": "address"
        },
        {
          "indexed": true,
          "internalType": "address",
          "name": "beneficiary",
          "type": "address"
        },
        {
          "indexed": false,
          "internalType": "uint256",
          "name": "amount",
          "type": "uint256"
        },
        {
          "indexed": false,
          "internalType": "enum DonationPlatform.DonationCategory",
          "name": "category",
          "type": "uint8"
        }
      ],
      "name": "DonationReceived",
      "type": "event"
    },
    {
      "anonymous": false,
      "inputs": [
        {
          "indexed": true,
          "internalType": "address",
          "name": "beneficiary",
          "type": "address"
        },
        {
          "indexed": false,
          "internalType": "uint256",
          "name": "amount",
          "type": "uint256"
        }
      ],
      "name": "FundsWithdrawn",
      "type": "event"
    },
    {
      "anonymous": false,
      "inputs": [
        {
          "indexed": false,
          "internalType": "uint256",
          "name": "_tokenId",
          "type": "uint256"
        }
      ],
      "name": "MetadataUpdate",
      "type": "event"
    },
    {
      "anonymous": false,
      "inputs": [
        {
          "indexed": true,
          "internalType": "uint256",
          "name": "tokenId",
          "type": "uint256"
        },
        {
          "indexed": true,
          "internalType": "address",
          "name": "donor",
          "type": "address"
        },
        {
          "indexed": true,
          "internalType": "address",
          "name": "beneficiary",
          "type": "address"
        },
        {
          "indexed": false,
          "internalType": "uint256",
          "name": "amount",
          "type": "uint256"
        },
        {
          "indexed": false,
          "internalType": "enum DonationPlatform.DonationCategory",
          "name": "category",
          "type": "uint8"
        }
      ],
      "name": "NFTMinted",
      "type": "event"
    },
    {
      "anonymous": false,
      "inputs": [
        {
          "indexed": true,
          "internalType": "address",
          "name": "owner",
          "type": "address"
        },
        {
          "indexed": false,
          "internalType": "uint256",
          "name": "amount",
          "type": "uint256"
        }
      ],
      "name": "PlatformFeeWithdrawn",
      "type": "event"
    },
    {
      "anonymous": false,
      "inputs": [
        {
          "indexed": true,
          "internalType": "address",
          "name": "from",
          "type": "address"
        },
        {
          "indexed": true,
          "internalType": "address",
          "name": "to",
          "type": "address"
        },
        {
          "indexed": true,
          "internalType": "uint256",
          "name": "tokenId",
          "type": "uint256"
        }
      ],
      "name": "Transfer",
      "type": "event"
    },
    {
      "inputs": [
        {
          "internalType": "address",
          "name": "to",
          "type": "address"
        },
        {
          "internalType": "uint256",
          "name": "tokenId",
          "type": "uint256"
        }
      ],
      "name": "approve",
      "outputs": [],
      "stateMutability": "nonpayable",
      "type": "function"
    },
    {
      "inputs": [
        {
          "internalType": "address",
          "name": "owner",
          "type": "address"
        }
      ],
      "name": "balanceOf",
      "outputs": [
        {
          "internalType": "uint256",
          "name": "",
          "type": "uint256"
        }
      ],
      "stateMutability": "view",
      "type": "function",
      "constant": true
    },
    {
      "inputs": [
        {
          "internalType": "address",
          "name": "",
          "type": "address"
        }
      ],
      "name": "beneficiaryBalances",
      "outputs": [
        {
          "internalType": "uint256",
          "name": "",
          "type": "uint256"
        }
      ],
      "stateMutability": "view",
      "type": "function",
      "constant": true
    },
    {
      "inputs": [
        {
          "internalType": "address",
          "name": "",
          "type": "address"
        },
        {
          "internalType": "uint256",
          "name": "",
          "type": "uint256"
        }
      ],
      "name": "beneficiaryDonations",
      "outputs": [
        {
          "internalType": "address",
          "name": "donor",
          "type": "address"
        },
        {
          "internalType": "uint256",
          "name": "amount",
          "type": "uint256"
        },
        {
          "internalType": "uint256",
          "name": "timestamp",
          "type": "uint256"
        },
        {
          "internalType": "uint256",
          "name": "nftTokenId",
          "type": "uint256"
        },
        {
          "internalType": "enum DonationPlatform.DonationCategory",
          "name": "category",
          "type": "uint8"
        }
      ],
      "stateMutability": "view",
      "type": "function",
      "constant": true
    },
    {
      "inputs": [
        {
          "internalType": "enum DonationPlatform.DonationCategory",
          "name": "",
          "type": "uint8"
        }
      ],
      "name": "categories",
      "outputs": [
        {
          "internalType": "string",
          "name": "name",
          "type": "string"
        },
        {
          "internalType": "string",
          "name": "description",
          "type": "string"
        },
        {
          "internalType": "string",
          "name": "imageFolder",
          "type": "string"
        },
        {
          "internalType": "bool",
          "name": "isActive",
          "type": "bool"
        },
        {
          "internalType": "uint256",
          "name": "totalRaised",
          "type": "uint256"
        },
        {
          "internalType": "uint256",
          "name": "donationCount",
          "type": "uint256"
        }
      ],
      "stateMutability": "view",
      "type": "function",
      "constant": true
    },
    {
      "inputs": [
        {
          "internalType": "enum DonationPlatform.DonationCategory",
          "name": "",
          "type": "uint8"
        }
      ],
      "name": "categoryImageUrls",
      "outputs": [
        {
          "internalType": "string",
          "name": "",
          "type": "string"
        }
      ],
      "stateMutability": "view",
      "type": "function",
      "constant": true
    },
    {
      "inputs": [
        {
          "internalType": "enum DonationPlatform.DonationCategory",
          "name": "",
          "type": "uint8"
        },
        {
          "internalType": "uint256",
          "name": "",
          "type": "uint256"
        }
      ],
      "name": "categoryNFTs",
      "outputs": [
        {
          "internalType": "uint256",
          "name": "",
          "type": "uint256"
        }
      ],
      "stateMutability": "view",
      "type": "function",
      "constant": true
    },
    {
      "inputs": [
        {
          "internalType": "address",
          "name": "",
          "type": "address"
        },
        {
          "internalType": "uint256",
          "name": "",
          "type": "uint256"
        }
      ],
      "name": "donorNFTs",
      "outputs": [
        {
          "internalType": "uint256",
          "name": "",
          "type": "uint256"
        }
      ],
      "stateMutability": "view",
      "type": "function",
      "constant": true
    },
    {
      "inputs": [
        {
          "internalType": "address",
          "name": "",
          "type": "address"
        }
      ],
      "name": "donorTotalDonations",
      "outputs": [
        {
          "internalType": "uint256",
          "name": "",
          "type": "uint256"
        }
      ],
      "stateMutability": "view",
      "type": "function",
      "constant": true
    },
    {
      "inputs": [
        {
          "internalType": "uint256",
          "name": "tokenId",
          "type": "uint256"
        }
      ],
      "name": "getApproved",
      "outputs": [
        {
          "internalType": "address",
          "name": "",
          "type": "address"
        }
      ],
      "stateMutability": "view",
      "type": "function",
      "constant": true
    },
    {
      "inputs": [
        {
          "internalType": "address",
          "name": "owner",
          "type": "address"
        },
        {
          "internalType": "address",
          "name": "operator",
          "type": "address"
        }
      ],
      "name": "isApprovedForAll",
      "outputs": [
        {
          "internalType": "bool",
          "name": "",
          "type": "bool"
        }
      ],
      "stateMutability": "view",
      "type": "function",
      "constant": true
    },
    {
      "inputs": [],
      "name": "minDonationForNFT",
      "outputs": [
        {
          "internalType": "uint256",
          "name": "",
          "type": "uint256"
        }
      ],
      "stateMutability": "view",
      "type": "function",
      "constant": true
    },
    {
      "inputs": [],
      "name": "name",
      "outputs": [
        {
          "internalType": "string",
          "name": "",
          "type": "string"
        }
      ],
      "stateMutability": "view",
      "type": "function",
      "constant": true
    },
    {
      "inputs": [
        {
          "internalType": "uint256",
          "name": "",
          "type": "uint256"
        }
      ],
      "name": "nftMetadata",
      "outputs": [
        {
          "internalType": "address",
          "name": "beneficiary",
          "type": "address"
        },
        {
          "internalType": "uint256",
          "name": "donationAmount",
          "type": "uint256"
        },
        {
          "internalType": "uint256",
          "name": "timestamp",
          "type": "uint256"
        },
        {
          "internalType": "enum DonationPlatform.DonationCategory",
          "name": "category",
          "type": "uint8"
        }
      ],
      "stateMutability": "view",
      "type": "function",
      "constant": true
    },
    {
      "inputs": [],
      "name": "owner",
      "outputs": [
        {
          "internalType": "address",
          "name": "",
          "type": "address"
        }
      ],
      "stateMutability": "view",
      "type": "function",
      "constant": true
    },
    {
      "inputs": [
        {
          "internalType": "uint256",
          "name": "tokenId",
          "type": "uint256"
        }
      ],
      "name": "ownerOf",
      "outputs": [
        {
          "internalType": "address",
          "name": "",
          "type": "address"
        }
      ],
      "stateMutability": "view",
      "type": "function",
      "constant": true
    },
    {
      "inputs": [],
      "name": "platformFee",
      "outputs": [
        {
          "internalType": "uint256",
          "name": "",
          "type": "uint256"
        }
      ],
      "stateMutability": "view",
      "type": "function",
      "constant": true
    },
    {
      "inputs": [
        {
          "internalType": "address",
          "name": "from",
          "type": "address"
        },
        {
          "internalType": "address",
          "name": "to",
          "type": "address"
        },
        {
          "internalType": "uint256",
          "name": "tokenId",
          "type": "uint256"
        }
      ],
      "name": "safeTransferFrom",
      "outputs": [],
      "stateMutability": "nonpayable",
      "type": "function"
    },
    {
      "inputs": [
        {
          "internalType": "address",
          "name": "from",
          "type": "address"
        },
        {
          "internalType": "address",
          "name": "to",
          "type": "address"
        },
        {
          "internalType": "uint256",
          "name": "tokenId",
          "type": "uint256"
        },
        {
          "internalType": "bytes",
          "name": "data",
          "type": "bytes"
        }
      ],
      "name": "safeTransferFrom",
      "outputs": [],
      "stateMutability": "nonpayable",
      "type": "function"
    },
    {
      "inputs": [
        {
          "internalType": "address",
          "name": "operator",
          "type": "address"
        },
        {
          "internalType": "bool",
          "name": "approved",
          "type": "bool"
        }
      ],
      "name": "setApprovalForAll",
      "outputs": [],
      "stateMutability": "nonpayable",
      "type": "function"
    },
    {
      "inputs": [],
      "name": "symbol",
      "outputs": [
        {
          "internalType": "string",
          "name": "",
          "type": "string"
        }
      ],
      "stateMutability": "view",
      "type": "function",
      "constant": true
    },
    {
      "inputs": [],
      "name": "totalDonations",
      "outputs": [
        {
          "internalType": "uint256",
          "name": "",
          "type": "uint256"
        }
      ],
      "stateMutability": "view",
      "type": "function",
      "constant": true
    },
    {
      "inputs": [
        {
          "internalType": "address",
          "name": "from",
          "type": "address"
        },
        {
          "internalType": "address",
          "name": "to",
          "type": "address"
        },
        {
          "internalType": "uint256",
          "name": "tokenId",
          "type": "uint256"
        }
      ],
      "name": "transferFrom",
      "outputs": [],
      "stateMutability": "nonpayable",
      "type": "function"
    },
    {
      "inputs": [
        {
          "internalType": "enum DonationPlatform.DonationCategory",
          "name": "_category",
          "type": "uint8"
        },
        {
          "internalType": "string",
          "name": "_imageUrl",
          "type": "string"
        }
      ],
      "name": "setCategoryImageUrl",
      "outputs": [],
      "stateMutability": "nonpayable",
      "type": "function"
    },
    {
      "inputs": [
        {
          "internalType": "address",
          "name": "_beneficiary",
          "type": "address"
        },
        {
          "internalType": "enum DonationPlatform.DonationCategory",
          "name": "_category",
          "type": "uint8"
        }
      ],
      "name": "donate",
      "outputs": [
        {
          "internalType": "bool",
          "name": "success",
          "type": "bool"
        },
        {
          "internalType": "uint256",
          "name": "nftTokenId",
          "type": "uint256"
        }
      ],
      "stateMutability": "payable",
      "type": "function",
      "payable": true
    },
    {
      "inputs": [
        {
          "internalType": "enum DonationPlatform.DonationCategory",
          "name": "_category",
          "type": "uint8"
        }
      ],
      "name": "getCategoryImageUrl",
      "outputs": [
        {
          "internalType": "string",
          "name": "",
          "type": "string"
        }
      ],
      "stateMutability": "view",
      "type": "function",
      "constant": true
    },
    {
      "inputs": [],
      "name": "withdraw",
      "outputs": [],
      "stateMutability": "nonpayable",
      "type": "function"
    },
    {
      "inputs": [],
      "name": "withdrawPlatformFees",
      "outputs": [],
      "stateMutability": "nonpayable",
      "type": "function"
    },
    {
      "inputs": [
        {
          "internalType": "uint256",
          "name": "_newFee",
          "type": "uint256"
        }
      ],
      "name": "setPlatformFee",
      "outputs": [],
      "stateMutability": "nonpayable",
      "type": "function"
    },
    {
      "inputs": [
        {
          "internalType": "address",
          "name": "_beneficiary",
          "type": "address"
        }
      ],
      "name": "getBeneficiaryBalance",
      "outputs": [
        {
          "internalType": "uint256",
          "name": "",
          "type": "uint256"
        }
      ],
      "stateMutability": "view",
      "type": "function",
      "constant": true
    },
    {
      "inputs": [
        {
          "internalType": "address",
          "name": "_beneficiary",
          "type": "address"
        }
      ],
      "name": "getDonationCount",
      "outputs": [
        {
          "internalType": "uint256",
          "name": "",
          "type": "uint256"
        }
      ],
      "stateMutability": "view",
      "type": "function",
      "constant": true
    },
    {
      "inputs": [
        {
          "internalType": "address",
          "name": "_beneficiary",
          "type": "address"
        },
        {
          "internalType": "uint256",
          "name": "_index",
          "type": "uint256"
        }
      ],
      "name": "getDonationDetails",
      "outputs": [
        {
          "internalType": "address",
          "name": "donor",
          "type": "address"
        },
        {
          "internalType": "uint256",
          "name": "amount",
          "type": "uint256"
        },
        {
          "internalType": "uint256",
          "name": "timestamp",
          "type": "uint256"
        }
      ],
      "stateMutability": "view",
      "type": "function",
      "constant": true
    },
    {
      "inputs": [],
      "name": "getContractBalance",
      "outputs": [
        {
          "internalType": "uint256",
          "name": "",
          "type": "uint256"
        }
      ],
      "stateMutability": "view",
      "type": "function",
      "constant": true
    },
    {
      "inputs": [
        {
          "internalType": "uint256",
          "name": "tokenId",
          "type": "uint256"
        }
      ],
      "name": "tokenURI",
      "outputs": [
        {
          "internalType": "string",
          "name": "",
          "type": "string"
        }
      ],
      "stateMutability": "view",
      "type": "function",
      "constant": true
    },
    {
      "inputs": [
        {
          "internalType": "bytes4",
          "name": "interfaceId",
          "type": "bytes4"
        }
      ],
      "name": "supportsInterface",
      "outputs": [
        {
          "internalType": "bool",
          "name": "",
          "type": "bool"
        }
      ],
      "stateMutability": "view",
      "type": "function",
      "constant": true
    }
  ],
  "bytecode": "0x60803462001a7057601f620046dd38819003918201601f19168301916001600160401b03831184841017620010525780849260209460405283398101031262001a7057516200004d62001a95565b90601382527f446f6e6174696f6e43657274696669636174650000000000000000000000000060208301526200008262001a95565b60058152641110d1549560da1b602082015282519091906001600160401b0381116200105257620000b560005462001ad5565b601f811162001a2f575b506020601f8211600114620019b85781929394600092620019ac575b50508160011b916000199060031b1c1916176000555b81516001600160401b03811162001052576200010f60015462001ad5565b601f81116200194d575b50602092601f8211600114620018e25792819293600092620018d6575b50508160011b916000199060031b1c1916176001555b62989680600a55600780546001600160a01b031916331790556008556200017262001a75565b6200017c62001a95565b600f81526e3b25613ae3e67b2cab7b21a33ae161608a1b60208201528152620001a462001a95565b601f81527fec9584eb8f9920ebb3b4ed98b820ebb08f20ebb3b5eca78020ed96a5ec83810060208201526020820152620001dd62001a95565b600981526832b23ab1b0ba34b7b760b91b602082015260408201526001606082015260006080820152600060a0820152600080526011602052604060002090805191825160018060401b0381116200105257620002478162000240845462001ad5565b8462001b5b565b6020601f82116001146200186957819293946000926200185d575b50508160011b916000199060031b1c19161781555b602082015180519092906001600160401b0381116200105257620002ae81620002a4600186015462001ad5565b6001860162001b5b565b6020601f8211600114620017ea5781929394600092620017de575b50508160011b916000199060031b1c19161760018301555b60408101518051906001600160401b038211620010525762000316826200030c600287015462001ad5565b6002870162001b5b565b602090601f8311600114620017645791806005949260a09460009262001758575b50508160011b916000199060031b1c19161760028501555b6060810151151560ff801960038701541691161760038501556080810151600485015501519101556200038162001a75565b6200038b62001a95565b60098152681d93d4bd92b41d93b760bb1b60208201528152620003ad62001ab5565b602981527fec9d98eba38cebb98420eca780ec9b9020ebb08f20ec9d98eba38c20ed9998ea6020820152680595e9075584e7642560bd1b60408201526020820152620003f862001a95565b60078152661b59591a58d85b60ca1b602082015260408201526001606082015260006080820152600060a082015260046000526011602052604060002090805191825160018060401b03811162001052576200045a8162000240845462001ad5565b6020601f8211600114620016eb5781929394600092620016df575b50508160011b916000199060031b1c19161781555b602082015180519092906001600160401b0381116200105257620004b781620002a4600186015462001ad5565b6020601f82116001146200166c578192939460009262001660575b50508160011b916000199060031b1c19161760018301555b60408101518051906001600160401b038211620010525762000515826200030c600287015462001ad5565b602090601f8311600114620015e65791806005949260a094600092620015da575b50508160011b916000199060031b1c19161760028501555b600384016060820151151560ff801983541691161790556080810151600485015501519101556200057e62001a75565b6200058862001a95565b6006815265ed9998eab2bd60d01b60208201528152620005a762001ab5565b602581527fed9998eab2bd20ebb3b4ed98b820ebb08f20eab8b0ed9b84ebb380ed999420eb6020820152648c80ec9d9160d81b60408201526020820152620005ee62001a95565b600b81526a195b9d9a5c9bdb9b595b9d60aa1b602082015260408201526001606082015260006080820152600060a082015260026000526011602052604060002090805191825160018060401b0381116200105257620006548162000240845462001ad5565b6020601f82116001146200156d578192939460009262001561575b50508160011b916000199060031b1c19161781555b602082015180519092906001600160401b0381116200105257620006b181620002a4600186015462001ad5565b6020601f8211600114620014ee5781929394600092620014e2575b50508160011b916000199060031b1c19161760018301555b60408101518051906001600160401b03821162001052576200070f826200030c600287015462001ad5565b602090601f8311600114620014685791806005949260a0946000926200145c575b50508160011b916000199060031b1c19161760028501555b600384016060820151151560ff801983541691161790556080810151600485015501519101556200077862001a75565b6200078262001a95565b60068152653b20ab3b66a360d21b60208201528152620007a162001ab5565b603081527fec9e90ec97b0ec9eaced95b420ed94bced95b420ebb3b5eab5ac20ebb08f20ea60208201526f016b59db317041d7611e41d57161db0760871b60408201526020820152620007f362001a95565b60088152673234b9b0b9ba32b960c11b602082015260408201526001606082015260006080820152600060a082015260056000526011602052604060002090805191825160018060401b0381116200105257620008568162000240845462001ad5565b6020601f8211600114620013ef5781929394600092620013e3575b50508160011b916000199060031b1c19161781555b602082015180519092906001600160401b0381116200105257620008b381620002a4600186015462001ad5565b6020601f821160011462001370578192939460009262001364575b50508160011b916000199060031b1c19161760018301555b60408101518051906001600160401b038211620010525762000911826200030c600287015462001ad5565b602090601f8311600114620012ea5791806005949260a094600092620012de575b50508160011b916000199060031b1c19161760028501555b600384016060820151151560ff801983541691161790556080810151600485015501519101556200097a62001a75565b6200098462001a95565b600c81526b1d71f33d75979d76769db31760a31b60208201528152620009a962001ab5565b602481527fec9ca0eab8b0eb8f99ebacbc20ebb3b4ed98b820ebb08f20eb8f99ebacbcebb3602082015263016bd94f60e71b60408201526020820152620009ef62001a95565b6006815265185b9a5b585b60d21b602082015260408201526001606082015260006080820152600060a082015260036000526011602052604060002090805191825160018060401b038111620010525762000a508162000240845462001ad5565b6020601f821160011462001271578192939460009262001265575b50508160011b916000199060031b1c19161781555b602082015180519092906001600160401b038111620010525762000aad81620002a4600186015462001ad5565b6020601f8211600114620011f25781929394600092620011e6575b50508160011b916000199060031b1c19161760018301555b60408101518051906001600160401b038211620010525762000b0b826200030c600287015462001ad5565b602090601f83116001146200116c5791806005949260a09460009262001160575b50508160011b916000199060031b1c19161760028501555b600384016060820151151560ff8019835416911617905560808101516004850155015191015562000b7462001a75565b62000b7e62001a95565b600c81526b01d70b71d93b71d7676bd94f60a71b6020820152815262000ba362001ab5565b602281527feb85b8ec9db820eb8f8cebb48420ebb08f20ebb3b5eca78020ec849cebb984ec60208201526122a960f21b6040820152602082015262000be762001a95565b6007815266656c6465726c7960c81b602082015260408201526001606082015260006080820152600060a082015260016000526011602052604060002090805191825160018060401b038111620010525762000c498162000240845462001ad5565b6020601f8211600114620010f35781929394600092620010e7575b50508160011b916000199060031b1c19161781555b602082015180519092906001600160401b038111620010525762000ca681620002a4600186015462001ad5565b6020601f821160011462001074578192939460009262001068575b50508160011b916000199060031b1c19161760018301555b60408101518051906001600160401b038211620010525762000d04826200030c600287015462001ad5565b602090601f831160011462000fd85791806005949260a09460009262000fcc575b50508160011b916000199060031b1c19161760028501555b600384016060820151151560ff80198354169116179055608081015160048501550151910155600080526013602052604060002062000d8862000d81825462001ad5565b8262001b2b565b60b781556000527f6e5f6e66745f736f63696574792e706e673f7261773d74727565000000000000600260206000207f68747470733a2f2f6769746875622e636f6d2f323231333630372f646f6e6174908181557f6e5f6e66745f6368696c6472656e2e706e673f7261773d747275650000000000837f696f6e2d6e66742d696d616765732f626c6f622f6d61696e2f646f6e6174696f92836001820155015560016000526013602052604060002062000e4762000d81825462001ad5565b60b581556000527f6e5f6e66745f656c6465726c792e706e673f7261773d747275650000000000008360206000208481558360018201550155826000526013602052604060002062000e9e62000d81825462001ad5565b60bd81556000527f6e5f6e66745f656e7669726f6e6d656e742e706e673f7261773d747275650000836020600020848155836001820155015560036000526013602052604060002062000ef662000d81825462001ad5565b60b381556000527f6e5f6e66745f616e696d616c2e706e673f7261773d7472756500000000000000836020600020848155836001820155015560046000526013602052604060002062000f4e62000d81825462001ad5565b60b581556000527f6e5f6e66745f6d65646963616c2e706e673f7261773d74727565000000000000836020600020848155836001820155015560056000526013602052604060002062000fa662000d81825462001ad5565b60b58155600052602060002091825560018201550155604051612b23908162001b9a8239f35b01519050388062000d25565b906002850160005260206000209160005b601f1985168110620010395750926005949260019260a09583601f198116106200101f575b505050811b01600285015562000d3d565b015160001960f88460031b161c191690553880806200100e565b9192602060018192868501518155019401920162000fe9565b634e487b7160e01b600052604160045260246000fd5b01519050388062000cc1565b6001840160005260206000209060005b601f1984168110620010ce5750600193949583601f19811610620010b4575b505050811b01600183015562000cd9565b015160001960f88460031b161c19169055388080620010a3565b9091602060018192858a01518155019301910162001084565b01519050388062000c64565b8260005260206000209060005b601f1984168110620011475750600193949583601f198116106200112d575b505050811b01815562000c79565b015160001960f88460031b161c191690553880806200111f565b9091602060018192858a01518155019301910162001100565b01519050388062000b2c565b906002850160005260206000209160005b601f1985168110620011cd5750926005949260019260a09583601f19811610620011b3575b505050811b01600285015562000b44565b015160001960f88460031b161c19169055388080620011a2565b919260206001819286850151815501940192016200117d565b01519050388062000ac8565b6001840160005260206000209060005b601f19841681106200124c5750600193949583601f1981161062001232575b505050811b01600183015562000ae0565b015160001960f88460031b161c1916905538808062001221565b9091602060018192858a01518155019301910162001202565b01519050388062000a6b565b8260005260206000209060005b601f1984168110620012c55750600193949583601f19811610620012ab575b505050811b01815562000a80565b015160001960f88460031b161c191690553880806200129d565b9091602060018192858a0151815501930191016200127e565b01519050388062000932565b906002850160005260206000209160005b601f19851681106200134b5750926005949260019260a09583601f1981161062001331575b505050811b0160028501556200094a565b015160001960f88460031b161c1916905538808062001320565b91926020600181928685015181550194019201620012fb565b015190503880620008ce565b6001840160005260206000209060005b601f1984168110620013ca5750600193949583601f19811610620013b0575b505050811b016001830155620008e6565b015160001960f88460031b161c191690553880806200139f565b9091602060018192858a01518155019301910162001380565b01519050388062000871565b8260005260206000209060005b601f1984168110620014435750600193949583601f1981161062001429575b505050811b01815562000886565b015160001960f88460031b161c191690553880806200141b565b9091602060018192858a015181550193019101620013fc565b01519050388062000730565b906002850160005260206000209160005b601f1985168110620014c95750926005949260019260a09583601f19811610620014af575b505050811b01600285015562000748565b015160001960f88460031b161c191690553880806200149e565b9192602060018192868501518155019401920162001479565b015190503880620006cc565b6001840160005260206000209060005b601f1984168110620015485750600193949583601f198116106200152e575b505050811b016001830155620006e4565b015160001960f88460031b161c191690553880806200151d565b9091602060018192858a015181550193019101620014fe565b0151905038806200066f565b8260005260206000209060005b601f1984168110620015c15750600193949583601f19811610620015a7575b505050811b01815562000684565b015160001960f88460031b161c1916905538808062001599565b9091602060018192858a0151815501930191016200157a565b01519050388062000536565b906002850160005260206000209160005b601f1985168110620016475750926005949260019260a09583601f198116106200162d575b505050811b0160028501556200054e565b015160001960f88460031b161c191690553880806200161c565b91926020600181928685015181550194019201620015f7565b015190503880620004d2565b6001840160005260206000209060005b601f1984168110620016c65750600193949583601f19811610620016ac575b505050811b016001830155620004ea565b015160001960f88460031b161c191690553880806200169b565b9091602060018192858a0151815501930191016200167c565b01519050388062000475565b8260005260206000209060005b601f19841681106200173f5750600193949583601f1981161062001725575b505050811b0181556200048a565b015160001960f88460031b161c1916905538808062001717565b9091602060018192858a015181550193019101620016f8565b01519050388062000337565b906002850160005260206000209160005b601f1985168110620017c55750926005949260019260a09583601f19811610620017ab575b505050811b0160028501556200034f565b015160001960f88460031b161c191690553880806200179a565b9192602060018192868501518155019401920162001775565b015190503880620002c9565b6001840160005260206000209060005b601f1984168110620018445750600193949583601f198116106200182a575b505050811b016001830155620002e1565b015160001960f88460031b161c1916905538808062001819565b9091602060018192858a015181550193019101620017fa565b01519050388062000262565b8260005260206000209060005b601f1984168110620018bd5750600193949583601f19811610620018a3575b505050811b01815562000277565b015160001960f88460031b161c1916905538808062001895565b9091602060018192858a01518155019301910162001876565b01519050388062000136565b601f19821693600160005260206000209160005b8681106200193457508360019596106200191a575b505050811b016001556200014c565b015160001960f88460031b161c191690553880806200190b565b91926020600181928685015181550194019201620018f6565b60016000526200199a907fb10e2d527612073b26eecdfd717e6a320cf44b4afac2b0732d9fcbe2b7fa0cf6601f840160051c81019160208510620019a1575b601f0160051c019062001b12565b3862000119565b90915081906200198c565b015190503880620000db565b6000808052600080516020620046bd8339815191529190601f198416905b81811062001a1657509583600195969710620019fc575b505050811b01600055620000f1565b015160001960f88460031b161c19169055388080620019ed565b9192602060018192868b015181550194019201620019d6565b6000805262001a6990600080516020620046bd833981519152601f840160051c81019160208510620019a157601f0160051c019062001b12565b38620000bf565b600080fd5b6040519060c082016001600160401b038111838210176200105257604052565b60408051919082016001600160401b038111838210176200105257604052565b60405190606082016001600160401b038111838210176200105257604052565b90600182811c9216801562001b07575b602083101462001af157565b634e487b7160e01b600052602260045260246000fd5b91607f169162001ae5565b81811062001b1e575050565b6000815560010162001b12565b90601f811162001b39575050565b62001b59916000526003601f6020600020920160051c8201910162001b12565b565b9190601f811162001b6b57505050565b62001b59926000526020600020906020601f840160051c83019310620019a157601f0160051c019062001b1256fe608080604052600436101561001357600080fd5b60003560e01c90816301ffc9a714611da75750806306fdde0314611d0457806307bcb6ef1461186c578063081812fc14611ce6578063095ea7b314611b6c57806312e8e2c314611aca57806323b872dd14611aa657806326232a2e14611a885780633ccfd60b146119c557806342842e0e1461199257806349541015146119335780635626f9a2146118a65780635664865a1461186c57806357d27814146118325780636352211e146118025780636f9fb98a146117e657806370a082311461174f5780637be6277b146116a3578063859c001014610a1257806387921fd3146109c85780638da5cb5b1461099f5780638dd5685e146108a557806395d89b41146107da57806398472bcb146107bc578063a22cb465146106ea578063aa41f4081461069e578063b88d4fde14610616578063c522bcab146105dc578063c87b56dd1461056a578063d0b7830b14610474578063d25825c814610262578063de2ed89314610244578063e0e5ecdc146101a0578063e985e9c5146101ee5763ef8945da146101a057600080fd5b346101e95760203660031901126101e95760043560068110156101e9576101d16101cc6101e592611f17565b611ff9565b604051918291602083526020830190611e4f565b0390f35b600080fd5b346101e95760403660031901126101e957610207611e74565b61020f611e8a565b9060018060a01b03809116600052600560205260406000209116600052602052602060ff604060002054166040519015158152f35b346101e95760003660031901126101e9576020600954604051908152f35b346101e95760403660031901126101e95760043560068110156101e95767ffffffffffffffff906024358281116101e957366023820112156101e9576102b29036906024816004013591016120d3565b6102c760018060a01b0360075416331461261c565b6102df60ff60036102d785611efe565b01541661267b565b6102e882611f17565b815193841161045e576102fb8154611f49565b601f8111610416575b50602093601f81116001146103895791610379918361036895947f9e353d487a76c6b673b14dae58790ba16c2a54281eadfa8d5dd2b090f94517bb9760009161037e575b508160011b916000199060031b1c19161790555b60405193848094611ed5565b604060208401526040830190611e4f565b0390a1005b905083015188610348565b601f19811682600052856000209060005b8181106103fe57508261037994927f9e353d487a76c6b673b14dae58790ba16c2a54281eadfa8d5dd2b090f94517bb98610368989795600194106103e5575b5050811b01905561035c565b85015160001960f88460031b161c1916905588806103d9565b8588015183556020978801976001909301920161039a565b816000526020600020601f860160051c81019160208710610454575b601f0160051c01905b8181106104485750610304565b6000815560010161043b565b9091508190610432565b634e487b7160e01b600052604160045260246000fd5b346101e95760003660031901126101e9576007546001600160a01b039081169061049f33831461261c565b6104c6476104c0476127106104b9600954600854906126dd565b04906126f0565b906126f0565b918215610519576000808085819482f11561050d5760207fd116803f8b8538a601b6096e8d1196e3ce3ef43dec6dbbe4cd4e5c69dd171d8b916007541692604051908152a2005b6040513d6000823e3d90fd5b60405162461bcd60e51b8152602060048201526024808201527fed948ceb9eabed8fbc20ec8898ec8898eba38ceab08020ec9786ec8ab5eb8b8860448201526375c5d21760e11b6064820152608490fd5b346101e95760203660031901126101e9576004356000818152600260205260409020546105a1906001600160a01b0316151561210a565b60005260066020526101e56105b96040600020611ff9565b60006040516105c781611f9f565b52604051918291602083526020830190611e4f565b346101e95760203660031901126101e9576001600160a01b036105fd611e74565b16600052600d6020526020604060002054604051908152f35b346101e95760803660031901126101e95761062f611e74565b610637611e8a565b906064359060443567ffffffffffffffff83116101e957366023840112156101e95761069c936106746106979436906024816004013591016120d3565b926106876106828433612293565b6121ba565b61069283838361235b565b612591565b61226f565b005b346101e95760403660031901126101e95760043560068110156101e9576106c760243591611f30565b80548210156101e9576020916106dc9161209f565b90546040519160031b1c8152f35b346101e95760403660031901126101e957610703611e74565b602435908115158092036101e9576001600160a01b03169033821461077757336000526005602052604060002082600052602052604060002060ff1981541660ff83161790556040519081527f17307eab39ab6107e8899845ad3d59bd9653f200f220920489ca2b5937696c3160203392a3005b60405162461bcd60e51b815260206004820152601960248201527f4552433732313a20617070726f766520746f2063616c6c6572000000000000006044820152606490fd5b346101e95760003660031901126101e9576020600a54604051908152f35b346101e95760003660031901126101e957604051600060018054906107fe82611f49565b8085529181811690811561087e5750600114610825575b6101e5846101d181860382611fd7565b600081815292507fb10e2d527612073b26eecdfd717e6a320cf44b4afac2b0732d9fcbe2b7fa0cf65b8284106108665750505081016020016101d182610815565b8054602085870181019190915290930192810161084e565b60ff191660208087019190915292151560051b850190920192506101d19150839050610815565b346101e95760403660031901126101e9576108be611e74565b6001600160a01b039081166000818152600d6020526040902054602435929190831015610961576060926108fe91600052600d6020526040600020611ee2565b506040519161090c83611f83565b8082541683526001820154926020810193845261094860ff6004600286015495604085019687526003810154898601520154166080830161270a565b5116915190519060405192835260208301526040820152f35b60405162461bcd60e51b8152602060048201526016602482015275092dcecc2d8d2c840c8dedcc2e8d2dedc40d2dcc8caf60531b6044820152606490fd5b346101e95760003660031901126101e9576007546040516001600160a01b039091168152602090f35b346101e95760403660031901126101e9576109e1611e74565b6001600160a01b03166000908152600f60205260409020805460243591908210156101e9576020916106dc9161209f565b60403660031901126101e957610a26611e74565b600660243510156101e957341561164c576001600160a01b038116156115fb57610a5860ff60036102d7602435611efe565b610a71612710610a6a600854346126dd565b04346126f0565b60018060a01b038216600052600c6020526040600020610a928282546126fd565b90553360005260106020526040600020610aad3482546126fd565b90556004610abc602435611efe565b01610ac83482546126fd565b90556005610ad7602435611efe565b0180546000198114611522576001019055600090600a54341015610c48575b60018060a01b038316600052600d60205260406000209260405193610b1a85611f83565b338552826020860152426040860152836060860152610b3e6024356080870161270a565b8054600160401b81101561045e57610b5b91600182018155611ee2565b949094610c3257805185546001600160a01b0319166001600160a01b039190911617855560208101516001860155604081015160028601556060810151600386015560800151936006851015610c1c576040946004610bba9201612716565b610bc6346009546126fd565b6009558351918252610bdd60208301602435611ed5565b6001600160a01b03169033907ff1aae0ff104ee815e2eeddd272989f2774ee0b5a3c7cff7b3fc7321464271842908590a3815190600182526020820152f35b634e487b7160e01b600052602160045260246000fd5b634e487b7160e01b600052600060045260246000fd5b9050600b5460018101600b5560ff6003610c63602435611efe565b015416156115f4576024355b604051610c7b81611f9f565b6000815233156115b057600083815260026020526040902054610d3e9161069791610cb2906001600160a01b031615155b15612763565b600085815260026020526040902054610cd5906001600160a01b03161515610cac565b3360005260036020526040600020600181540190558460005260026020526040600020336bffffffffffffffffffffffff60a01b825416179055843360007fddf252ad1be2c89b69c2b068fc378daa952ba7f163c4a11628f55a4df523b3ef8180a48433612471565b60405180608081011067ffffffffffffffff60808301111761045e576080810160405260018060a01b038516815260208101848152604082014281526060830191610d89858461270a565b6000868152600e60205260409020935184546001600160a01b0319166001600160a01b0391909116178455516001840155516002830155516006811015610c1c576003610dd69201612716565b610de26101cc82611f17565b80511561154e575b610df382611efe565b610dfc846129aa565b916001610e0885611efe565b01610e12866129aa565b610e1b86611efe565b60405192906001600160a01b038b16610e3385611fbb565b602a855260403660208701378451156115385760306020860153845160011015611538576078602186015360295b600181116114d9575061149557610e81670de0b6b3a76400008b046129aa565b91610e8b8b6129aa565b93610e95426129aa565b96604051998a99693d913730b6b2911d101160b11b60208c0152602a8b01610ebc916127af565b7220eab8b0ebb68020ec9db8eca69dec849c202360681b8152815191610eeb9083906013840190602001611e2c565b019261088b60f21b938460138201526f113232b9b1b934b83a34b7b7111d101160811b6015820152602501610f1f916127af565b7fec979020eb8c80ed959c20ec868ceca491ed959c20eab8b0ebb680ec979020ea8152732c243b20ab3ae4e73ae9af7ae2e23ae2e90b888b60621b602080830191909152691134b6b0b3b2911d101160b11b6034830152825192610f8a918491603e85019101611e2c565b0182603e820152604081017f2265787465726e616c5f75726c223a202268747470733a2f2f796f75722d646f9052606081017f6e6174696f6e2d706c6174666f726d2e636f6d2f6e66742f0000000000000000905281519182607883019160200191610ff592611e2c565b019060788201526e2261747472696275746573223a205b60881b607a820152608981017f7b2274726169745f74797065223a2022ecb9b4ed858ceab3a0eba6ac222c20229052683b30b63ab2911d101160b91b60a982015260b201611059916127af565b62089f4b60ea1b8082527f7b2274726169745f74797065223a2022ec8898ed989cec9e90222c202276616c6003830152653ab2911d101160d11b6023830152845190949091906110b29083906029840190602001611e2c565b01836029820152602c81017f7b2274726169745f74797065223a2022eab8b0ebb680eab888ec95a12028455490526d02414911610113b30b63ab2911d160951b604c82015281519182605a8301916020019161110d92611e2c565b01605a8101611f4b60f21b9052605c81017f7b2274726169745f74797065223a2022eab8b0ebb680eab888ec95a12028576590526e3494911610113b30b63ab2911d101160891b607c82015281519182608b8301916020019161116f92611e2c565b0190608b820152608e81017f7b2274726169745f74797065223a2022eab8b0ebb680ec9dbcec8b9c222c202290526703b30b63ab2911d160c51b60ae8201528151918260b6830191602001916111c492611e2c565b0160b68101607d60f81b905260b78101615d7d60f01b90520360998101825260b9016111f09082611fd7565b6111f990612864565b6040518091602082017f646174613a6170706c69636174696f6e2f6a736f6e3b6261736536342c000000905280519081603d8401916020019161123b92611e2c565b810103601d81018252603d016112519082611fd7565b6000838152600260205260409020546001600160a01b0316156114395782600052600660205260406000209080519067ffffffffffffffff821161045e57819061129b8454611f49565b601f81116113e9575b50602090601f831160011461137d57600092611372575b50508160011b916000199060031b1c19161790555b7ff8e1a15aba9398e019f0b49df1a4fde98ee17ae345cb5f6b5e2c27f5033e8ce76020604051848152a133600052600f60205261131182604060002061272e565b6113238261131e83611f30565b61272e565b611337604051918483526020830190611ed5565b6001600160a01b03841690339083907f384743d8ff97d22688c9f0e2a07795535d4a3b0fccbfde1b9a4edd7346d6c76b90604090a490610af6565b0151905087806112bb565b9250836000526020600020906000935b601f19841685106113ce576001945083601f198116106113b5575b505050811b0190556112d0565b015160001960f88460031b161c191690558780806113a8565b8181015183556020948501946001909301929091019061138d565b909150836000526020600020601f840160051c810160208510611432575b90849392915b601f830160051c820181106114235750506112a4565b6000815585945060010161140d565b5080611407565b60405162461bcd60e51b815260206004820152602e60248201527f45524337323155524953746f726167653a2055524920736574206f66206e6f6e60448201526d32bc34b9ba32b73a103a37b5b2b760911b6064820152608490fd5b606460405162461bcd60e51b815260206004820152602060248201527f537472696e67733a20686578206c656e67746820696e73756666696369656e746044820152fd5b906010600f82161015611538578551821015611538576f181899199a1a9b1b9c1cb0b131b232b360811b600f82161a8683016020015360041c9080156115225760001901610e61565b634e487b7160e01b600052601160045260246000fd5b634e487b7160e01b600052603260045260246000fd5b5060405161155b81611fbb565b603981527f68747470733a2f2f7669612e706c616365686f6c6465722e636f6d2f3430307860208201527f3430302e706e673f746578743d446f6e6174696f6e2b4e4654000000000000006040820152610dea565b606460405162461bcd60e51b815260206004820152602060248201527f4552433732313a206d696e7420746f20746865207a65726f20616464726573736044820152fd5b6005610c6f565b60405162461bcd60e51b8152602060048201526024808201527fec9ca0ed9aa8ed9598eca78020ec958aec9d8020eca3bcec868cec9e85eb8b8860448201526375c5d21760e11b6064820152608490fd5b60405162461bcd60e51b815260206004820152602960248201527feab8b0ebb680eab888ec9d802030657468eba5bc20eb8498ec96b4ec95bc20ed6044820152684ad4f5c5c475c5d21760b91b6064820152608490fd5b346101e95760203660031901126101e95760043560068110156101e9576116cc61171d91611efe565b6116d581611ff9565b906116e260018201611ff9565b6116ee60028301611ff9565b9161173960ff6003830154169361172b600560048501549401549460405198899860c08a5260c08a0190611e4f565b9088820360208a0152611e4f565b908682036040880152611e4f565b9215156060850152608084015260a08301520390f35b346101e95760203660031901126101e9576001600160a01b03611770611e74565b16801561178f5760005260036020526020604060002054604051908152f35b60405162461bcd60e51b815260206004820152602960248201527f4552433732313a2061646472657373207a65726f206973206e6f7420612076616044820152683634b21037bbb732b960b91b6064820152608490fd5b346101e95760003660031901126101e957602047604051908152f35b346101e95760203660031901126101e9576020611820600435612156565b6040516001600160a01b039091168152f35b346101e95760203660031901126101e9576001600160a01b03611853611e74565b1660005260106020526020604060002054604051908152f35b346101e95760203660031901126101e9576001600160a01b0361188d611e74565b16600052600c6020526020604060002054604051908152f35b346101e95760403660031901126101e9576118bf611e74565b6024359060018060a01b03809116600052600d60205260406000209182548110156101e9576118f36119319160a094611ee2565b509182541691600181015490600281015460ff6004600384015493015416926040519586526020860152604085015260608401526080830190611ed5565bf35b346101e95760203660031901126101e957600435600052600e6020526080604060002061193160018060a01b038254169160018101549060ff600360028301549201541691604051948552602085015260408401526060830190611ed5565b346101e95761069c6106976119a636611ea0565b90604051926119b484611f9f565b600084526106876106828433612293565b346101e95760003660031901126101e95733600052600c6020526040600020548015611a375733600052600c602052600060408120556000808080843382f11561050d576040519081527feaff4b37086828766ad3268786972c0cd24259d4c87a80f9d3963a3c3d999b0d60203392a2005b60405162461bcd60e51b8152602060048201526024808201527fec9db8ecb69ced95a020eab8b0ebb680eab888ec9db420ec9786ec8ab5eb8b8860448201526375c5d21760e11b6064820152608490fd5b346101e95760003660031901126101e9576020600854604051908152f35b346101e95761069c611ab736611ea0565b91611ac56106828433612293565b61235b565b346101e95760203660031901126101e957600435611af360018060a01b0360075416331461261c565b6103e88111611b0157600855005b60405162461bcd60e51b815260206004820152603760248201527fec8898ec8898eba38ceb8a9420ecb59ceb8c80203525eab98ceca780eba78c2060448201527fec84a4eca09520eab080eb8aa5ed95a9eb8b88eb8ba42e0000000000000000006064820152608490fd5b346101e95760403660031901126101e957611b85611e74565b602435906001600160a01b038080611b9c85612156565b16921691808314611c9757803314908115611c72575b5015611c0757600083815260046020526040902080546001600160a01b03191683179055611bdf83612156565b167f8c5be1e5ebec7d5bd14f71427d1e84f3dd0314c0f7b2291e5b200ac8c7c3b925600080a4005b60405162461bcd60e51b815260206004820152603d60248201527f4552433732313a20617070726f76652063616c6c6572206973206e6f7420746f60448201527f6b656e206f776e6572206f7220617070726f76656420666f7220616c6c0000006064820152608490fd5b9050600052600560205260406000203360005260205260ff6040600020541684611bb2565b60405162461bcd60e51b815260206004820152602160248201527f4552433732313a20617070726f76616c20746f2063757272656e74206f776e656044820152603960f91b6064820152608490fd5b346101e95760203660031901126101e957602061182060043561217c565b346101e95760003660031901126101e95760405160008054611d2581611f49565b8084529060019081811690811561087e5750600114611d4e576101e5846101d181860382611fd7565b600080805292507f290decd9548b62a8d60345a988386fc84ba6bc95484008f6362f93160ef3e5635b828410611d8f5750505081016020016101d182610815565b80546020858701810191909152909301928101611d77565b346101e95760203660031901126101e9576004359063ffffffff60e01b82168092036101e957602091632483248360e11b8114908115611de9575b5015158152f35b6380ac58cd60e01b811491508115611e1b575b8115611e0a575b5083611de2565b6301ffc9a760e01b14905083611e03565b635b5e139f60e01b81149150611dfc565b60005b838110611e3f5750506000910152565b8181015183820152602001611e2f565b90602091611e6881518092818552858086019101611e2c565b601f01601f1916010190565b600435906001600160a01b03821682036101e957565b602435906001600160a01b03821682036101e957565b60609060031901126101e9576001600160a01b039060043582811681036101e9579160243590811681036101e9579060443590565b906006821015610c1c5752565b8054821015611538576000526005602060002091020190600090565b6006811015610c1c576000526011602052604060002090565b6006811015610c1c576000526013602052604060002090565b6006811015610c1c576000526012602052604060002090565b90600182811c92168015611f79575b6020831014611f6357565b634e487b7160e01b600052602260045260246000fd5b91607f1691611f58565b60a0810190811067ffffffffffffffff82111761045e57604052565b6020810190811067ffffffffffffffff82111761045e57604052565b6060810190811067ffffffffffffffff82111761045e57604052565b90601f8019910116810190811067ffffffffffffffff82111761045e57604052565b906040519182600082549261200d84611f49565b90818452600194858116908160001461207c5750600114612039575b505061203792500383611fd7565b565b9093915060005260209081600020936000915b81831061206457505061203793508201013880612029565b8554888401850152948501948794509183019161204c565b91505061203794506020925060ff191682840152151560051b8201013880612029565b80548210156115385760005260206000200190600090565b67ffffffffffffffff811161045e57601f01601f191660200190565b9291926120df826120b7565b916120ed6040519384611fd7565b8294818452818301116101e9578281602093846000960137010152565b1561211157565b60405162461bcd60e51b815260206004820152601860248201527f4552433732313a20696e76616c696420746f6b656e20494400000000000000006044820152606490fd5b6000908152600260205260409020546001600160a01b031661217981151561210a565b90565b60008181526002602052604090205461219f906001600160a01b0316151561210a565b6000908152600460205260409020546001600160a01b031690565b156121c157565b60405162461bcd60e51b815260206004820152602d60248201527f4552433732313a2063616c6c6572206973206e6f7420746f6b656e206f776e6560448201526c1c881bdc88185c1c1c9bdd9959609a1b6064820152608490fd5b60809060208152603260208201527f4552433732313a207472616e7366657220746f206e6f6e20455243373231526560408201527131b2b4bb32b91034b6b83632b6b2b73a32b960711b60608201520190565b1561227657565b60405162461bcd60e51b81528061228f6004820161221c565b0390fd5b906001600160a01b0380806122a784612156565b169316918383149384156122da575b5083156122c4575b50505090565b6122d09192935061217c565b16143880806122be565b909350600052600560205260406000208260005260205260ff6040600020541692386122b6565b1561230857565b60405162461bcd60e51b815260206004820152602560248201527f4552433732313a207472616e736665722066726f6d20696e636f72726563742060448201526437bbb732b960d91b6064820152608490fd5b906123839161236984612156565b6001600160a01b0393918416928492909183168414612301565b1691821561242057816123a09161239986612156565b1614612301565b7fddf252ad1be2c89b69c2b068fc378daa952ba7f163c4a11628f55a4df523b3ef60008481526004602052604081206bffffffffffffffffffffffff60a01b9081815416905583825260036020526040822060001981540190558482526040822060018154019055858252600260205284604083209182541617905580a4565b60405162461bcd60e51b8152602060048201526024808201527f4552433732313a207472616e7366657220746f20746865207a65726f206164646044820152637265737360e01b6064820152608490fd5b9192600092909190803b15612587576124bf946040518092630a85bd0160e11b9485835233600484015287602484015260448301526080606483015281878160209a8b966084830190611e4f565b03926001600160a01b03165af1849181612543575b50612532575050503d60001461252a573d6124ee816120b7565b906124fc6040519283611fd7565b81528091833d92013e5b805191826125275760405162461bcd60e51b81528061228f6004820161221c565b01fd5b506060612506565b6001600160e01b0319161492509050565b9091508581813d8311612580575b61255b8183611fd7565b8101031261257c57516001600160e01b03198116810361257c5790386124d4565b8480fd5b503d612551565b5050915050600190565b9293600093909291803b15612611579484916125eb9660405180948193630a85bd0160e11b9788845233600485015260018060a01b0380921660248501526044840152608060648401528260209b8c976084830190611e4f565b0393165af18491816125435750612532575050503d60001461252a573d6124ee816120b7565b505050915050600190565b1561262357565b60405162461bcd60e51b815260206004820152602a60248201527f6f776e6572eba78c20ec9db420ed95a8ec889820ed98b8ecb69c20eab080eb8a604482015269297b656a7ae2e23ae2e960b21b6064820152608490fd5b1561268257565b60405162461bcd60e51b815260206004820152602d60248201527fed999cec84b1ed9994eb9098eca78020ec958aec9d8020ecb9b4ed858ceab3a060448201526c75d356764f42f5c5c475c5d21760991b6064820152608490fd5b8181029291811591840414171561152257565b9190820391821161152257565b9190820180921161152257565b6006821015610c1c5752565b906006811015610c1c5760ff80198354169116179055565b8054600160401b81101561045e5761274b9160018201815561209f565b819291549060031b91821b91600019901b1916179055565b1561276a57565b60405162461bcd60e51b815260206004820152601c60248201527f4552433732313a20746f6b656e20616c7265616479206d696e746564000000006044820152606490fd5b6000929181546127be81611f49565b9260019180831690811561281757506001146127db575b50505050565b90919293945060005260209081600020906000915b85831061280657505050500190388080806127d5565b8054858401529183019181016127f0565b60ff19168452505050811515909102019150388080806127d5565b9061283c826120b7565b6128496040519182611fd7565b828152809261285a601f19916120b7565b0190602036910137565b8051156129965760405161287781611fbb565b604081527f4142434445464748494a4b4c4d4e4f505152535455565758595a61626364656660208201527f6768696a6b6c6d6e6f707172737475767778797a303132333435363738392b2f60408201528151600292838201809211611522576003918290046001600160fe1b0381168103611522576128f9908594951b612832565b936020850193829183518401925b838110612945575050505051068060011461293257600214612927575090565b603d90600019015390565b50603d9081600019820153600119015390565b85600491979293949701918251600190603f9082828260121c16880101518453828282600c1c16880101518385015382828260061c1688010151888501531685010151878201530195929190612907565b506040516129a381611f9f565b6000815290565b806000917a184f03e93ff9f4daa797ed6e38ed64bf6a1f01000000000000000080821015612adf575b506d04ee2d6d415b85acef810000000080831015612ad0575b50662386f26fc1000080831015612ac1575b506305f5e10080831015612ab2575b5061271080831015612aa3575b506064821015612a93575b600a80921015612a89575b600190816021612a41828701612832565b95860101905b612a53575b5050505090565b600019019083906f181899199a1a9b1b9c1cb0b131b232b360811b8282061a835304918215612a8457919082612a47565b612a4c565b9160010191612a30565b9190606460029104910191612a25565b60049193920491019138612a1a565b60089193920491019138612a0d565b601091939204910191386129fe565b602091939204910191386129ec565b6040935081049150386129d356fea26469706673582212208c1088595d232ae221c6f0c326e831611758334085a639a8d9795a1fa9d6aab064736f6c63430008130033290decd9548b62a8d60345a988386fc84ba6bc95484008f6362f93160ef3e563",
  "immutableReferences": {},
  "source": "// SPDX-License-Identifier: MIT\r\npragma solidity ^0.8.19;\r\n\r\nimport \"@openzeppelin/contracts/token/ERC721/ERC721.sol\";\r\nimport \"@openzeppelin/contracts/token/ERC721/extensions/ERC721URIStorage.sol\";\r\nimport \"@openzeppelin/contracts/utils/Counters.sol\";\r\nimport \"@openzeppelin/contracts/utils/Strings.sol\";\r\nimport \"@openzeppelin/contracts/utils/Base64.sol\";\r\n\r\ncontract DonationPlatform is ERC721, ERC721URIStorage {\r\n    // \r\n    address public owner;\r\n    uint256 public platformFee; //  (100 1  ,100=1%)\r\n    uint256 public totalDonations;\r\n\r\n    // NFT  \r\n    uint256 public minDonationForNFT=0.00000000001 ether; //  .  \r\n    // string public baseImageURI=\"https://your-domain.com/nft-images/\"; //NFT   URI\r\n\r\n    using Counters for Counters.Counter;\r\n    using Strings for uint256;\r\n\r\n    //\r\n    Counters.Counter private _tokenIdCounter;\r\n\r\n    //   \r\n    struct CategoryInfo{\r\n        string name; \r\n        string description; \r\n        string imageFolder; \r\n        bool isActive; \r\n        uint256 totalRaised; \r\n        uint256 donationCount; \r\n    }\r\n\r\n    //   \r\n    struct Donation{\r\n        address donor;\r\n        uint256 amount;\r\n        uint256 timestamp;\r\n        uint256 nftTokenId;\r\n        DonationCategory category;\r\n    }\r\n\r\n    enum DonationCategory {\r\n        CHILDREN, \r\n        ELDERLY, \r\n        ENVIRONMENT,\r\n        ANIMAL, \r\n        MEDICAL, \r\n        SOCIETY \r\n    }\r\n\r\n    struct NFTMetadata {\r\n        address beneficiary; \r\n        uint256 donationAmount;\r\n        uint256 timestamp; \r\n        DonationCategory category; \r\n    }\r\n    mapping(address=> uint256) public beneficiaryBalances;\r\n    mapping(address=> Donation[]) public beneficiaryDonations;\r\n    mapping(uint256=> NFTMetadata) public nftMetadata;\r\n    mapping(address=> uint256[]) public donorNFTs;\r\n    mapping(address => uint256) public donorTotalDonations;\r\n\r\n    mapping(DonationCategory => CategoryInfo) public categories;\r\n\r\n    mapping(DonationCategory => uint256[]) public categoryNFTs; \r\n    mapping(DonationCategory => string) public categoryImageUrls;   \r\n    function _initializeImageUrls() internal{\r\n        categoryImageUrls[DonationCategory.CHILDREN] = \"https://github.com/2213607/donation-nft-images/blob/main/donation_nft_children.png?raw=true\";\r\n            categoryImageUrls[DonationCategory.ELDERLY] = \"https://github.com/2213607/donation-nft-images/blob/main/donation_nft_elderly.png?raw=true\";\r\n            categoryImageUrls[DonationCategory.ENVIRONMENT] = \"https://github.com/2213607/donation-nft-images/blob/main/donation_nft_environment.png?raw=true\";\r\n            categoryImageUrls[DonationCategory.ANIMAL] = \"https://github.com/2213607/donation-nft-images/blob/main/donation_nft_animal.png?raw=true\";\r\n            categoryImageUrls[DonationCategory.MEDICAL] = \"https://github.com/2213607/donation-nft-images/blob/main/donation_nft_medical.png?raw=true\";\r\n            categoryImageUrls[DonationCategory.SOCIETY] = \"https://github.com/2213607/donation-nft-images/blob/main/donation_nft_society.png?raw=true\";\r\n    }\r\n\r\n    event DonationReceived(address indexed donor, address indexed beneficiary,\r\n    uint256 amount,DonationCategory category);\r\n    event FundsWithdrawn(address indexed beneficiary, uint256 amount);\r\n    event PlatformFeeWithdrawn(address indexed owner,uint256 amount);\r\n    event NFTMinted(uint256 indexed tokenId, address indexed donor,address indexed beneficiary,\r\n     uint256 amount,DonationCategory category);\r\n    event CategoryImageUpdated(DonationCategory category, string imageUrl);\r\n\r\n    //\r\n       constructor(uint256 _initialFee) ERC721(\"DonationCertificate\", \"DCERT\") {\r\n        owner = msg.sender;\r\n        platformFee = _initialFee;\r\n        _initializeCategories(); \r\n        _initializeImageUrls(); \r\n    }\r\n\r\n    modifier onlyOwner(){\r\n        require(msg.sender==owner, unicode\"owner    \");\r\n        _;\r\n    }\r\n\r\n    function _initializeCategories() internal {\r\n        categories[DonationCategory.CHILDREN] = CategoryInfo({\r\n            name: unicode\"\",\r\n            description: unicode\"    \",\r\n            imageFolder: \"education\",\r\n            isActive: true,\r\n            totalRaised: 0,\r\n            donationCount: 0\r\n        });\r\n        \r\n        categories[DonationCategory.MEDICAL] = CategoryInfo({\r\n            name: unicode\"\",\r\n            description: unicode\"     \",\r\n            imageFolder: \"medical\",\r\n            isActive: true,\r\n            totalRaised: 0,\r\n            donationCount: 0\r\n        });\r\n        \r\n        categories[DonationCategory.ENVIRONMENT] = CategoryInfo({\r\n            name: unicode\"\",\r\n            description: unicode\"    \",\r\n            imageFolder: \"environment\",\r\n            isActive: true,\r\n            totalRaised: 0,\r\n            donationCount: 0\r\n        });\r\n        \r\n        categories[DonationCategory.SOCIETY] = CategoryInfo({\r\n            name: unicode\"\",\r\n            description: unicode\"      \",\r\n            imageFolder: \"disaster\",\r\n            isActive: true,\r\n            totalRaised: 0,\r\n            donationCount: 0\r\n        });\r\n        \r\n        categories[DonationCategory.ANIMAL] = CategoryInfo({\r\n            name: unicode\"\",\r\n            description: unicode\"   \",\r\n            imageFolder: \"animal\",\r\n            isActive: true,\r\n            totalRaised: 0,\r\n            donationCount: 0\r\n        });\r\n  \r\n        \r\n        categories[DonationCategory.ELDERLY] = CategoryInfo({\r\n            name: unicode\"\",\r\n            description: unicode\"    \",\r\n            imageFolder: \"elderly\",\r\n            isActive: true,\r\n            totalRaised: 0,\r\n            donationCount: 0\r\n        });\r\n\r\n    }\r\n    function setCategoryImageUrl(\r\n        DonationCategory _category, \r\n        string memory _imageUrl\r\n    ) public onlyOwner {\r\n        require(categories[_category].isActive, unicode\"  .\");\r\n        categoryImageUrls[_category] = _imageUrl;\r\n        emit CategoryImageUpdated(_category, _imageUrl);\r\n    }\r\n    function donate(address _beneficiary,\r\n                DonationCategory _category) public payable\r\n                 returns (bool success, uint256 nftTokenId){\r\n        require(msg.value>0,unicode\" 0eth  .\");\r\n        require(_beneficiary !=address(0),unicode\"  .\");\r\n        require(categories[_category].isActive,unicode\"  .\");\r\n\r\n        uint256 fee=(msg.value * platformFee) /10000;\r\n        uint256 donationAmount = msg.value-fee; \r\n\r\n        beneficiaryBalances[_beneficiary]+=donationAmount;\r\n\r\n        donorTotalDonations[msg.sender] += msg.value;\r\n        categories[_category].totalRaised += msg.value;\r\n        categories[_category].donationCount++;\r\n\r\n        uint256 tokenId=0;\r\n\r\n        if (msg.value >= minDonationForNFT) {\r\n            tokenId = _mintCategoryNFT(msg.sender, _beneficiary, donationAmount, _category);\r\n        }\r\n\r\n        beneficiaryDonations[_beneficiary].push(\r\n            Donation({\r\n                donor: msg.sender,\r\n                amount: donationAmount,\r\n                timestamp: block.timestamp,\r\n                nftTokenId: tokenId,\r\n                category:_category\r\n            })\r\n        );\r\n\r\n        totalDonations+=msg.value;\r\n        emit DonationReceived(msg.sender,_beneficiary,donationAmount,_category);\r\n        return (true, tokenId);\r\n    }\r\n    function _mintCategoryNFT(\r\n    address _donor,\r\n    address _beneficiary, \r\n    uint256 _amount,\r\n    DonationCategory _category\r\n) internal returns (uint256){\r\n    uint256 tokenId=_tokenIdCounter.current();\r\n    _tokenIdCounter.increment();\r\n    \r\n    //    SOCIETY() \r\n    DonationCategory finalCategory = categories[_category].isActive ? _category : DonationCategory.SOCIETY;\r\n    \r\n    _safeMint(_donor,tokenId);\r\n    \r\n    nftMetadata[tokenId] = NFTMetadata({\r\n        beneficiary: _beneficiary,\r\n        donationAmount: _amount,\r\n        timestamp: block.timestamp,\r\n        category: finalCategory  //    \r\n    });\r\n    \r\n    string memory MetaDataURI = _generateCategoryTokenURI(\r\n        tokenId, _beneficiary, _amount, finalCategory);  //    \r\n    _setTokenURI(tokenId, MetaDataURI);\r\n    \r\n    donorNFTs[_donor].push(tokenId);\r\n    categoryNFTs[finalCategory].push(tokenId);  //    \r\n    \r\n    emit NFTMinted(tokenId, _donor, _beneficiary, _amount, finalCategory);\r\n\r\n    return tokenId;\r\n}\r\n    function _generateCategoryTokenURI(\r\n        uint256 _tokenId,\r\n        address _beneficiary,\r\n        uint256 _amount,\r\n        DonationCategory _category\r\n    ) internal view returns (string memory) {\r\n       \r\n        string memory imageUrl = categoryImageUrls[_category];\r\n\r\n        if (bytes(imageUrl).length == 0) {\r\n            imageUrl = \"https://via.placeholder.com/400x400.png?text=Donation+NFT\";\r\n        }\r\n\r\n        string memory json = string(abi.encodePacked(\r\n            '{\"name\": \"', categories[_category].name, unicode'   #', _tokenId.toString(), '\",',\r\n            '\"description\": \"', categories[_category].description, unicode'    .\",',\r\n            '\"image\": \"', imageUrl, '\",',\r\n            '\"external_url\": \"https://your-donation-platform.com/nft/', _tokenId.toString(), '\",',\r\n            '\"attributes\": [',\r\n                unicode'{\"trait_type\": \"\", \"value\": \"', categories[_category].name, '\"},',\r\n                unicode'{\"trait_type\": \"\", \"value\": \"', Strings.toHexString(uint160(_beneficiary), 20), '\"},',\r\n                unicode'{\"trait_type\": \" (ETH)\", \"value\": ', (_amount / 1e18).toString(), '},',\r\n                unicode'{\"trait_type\": \" (Wei)\", \"value\": \"', _amount.toString(), '\"},',\r\n                unicode'{\"trait_type\": \"\", \"value\": ', block.timestamp.toString(), '}',\r\n            ']}'\r\n        ));\r\n        string memory base64Json = Base64.encode(bytes(json));\r\n        return string(abi.encodePacked(\"data:application/json;base64,\", base64Json));\r\n    }\r\n    function getCategoryImageUrl(DonationCategory _category) public view returns (string memory) {\r\n        return categoryImageUrls[_category];\r\n    }\r\n    function withdraw() public {\r\n        address beneficiary = msg.sender;\r\n        uint256 amount = beneficiaryBalances[beneficiary];\r\n        \r\n        require(amount > 0, unicode\"  .\");\r\n        beneficiaryBalances[beneficiary] = 0;\r\n        payable(beneficiary).transfer(amount);\r\n        emit FundsWithdrawn(beneficiary, amount);\r\n    }\r\n    function withdrawPlatformFees() public onlyOwner {\r\n        uint256 platformBalance = address(this).balance - getTotalBeneficiaryBalances();\r\n        require(platformBalance > 0, unicode\"  .\");\r\n        \r\n        payable(owner).transfer(platformBalance);\r\n        \r\n        emit PlatformFeeWithdrawn(owner, platformBalance);\r\n    }\r\n    function setPlatformFee(uint256 _newFee) public onlyOwner{\r\n        require(_newFee<=1000,unicode\"  5%  .\"); // 5%\r\n        platformFee=_newFee;\r\n    }\r\n    function getTotalBeneficiaryBalances() private view returns (uint256){\r\n        return address(this).balance-(totalDonations*platformFee/10000);\r\n\r\n    }\r\n    function getBeneficiaryBalance(address _beneficiary) public view returns (uint256) {\r\n        return beneficiaryBalances[_beneficiary];\r\n    }\r\n    function getDonationCount(address _beneficiary) public view returns (uint256){\r\n         return beneficiaryDonations[_beneficiary].length;\r\n    }\r\n    function getDonationDetails(address _beneficiary, uint256 _index) public view returns (\r\n        address donor,\r\n        uint256 amount,\r\n        uint256 timestamp\r\n    ) {\r\n        \r\n        require(_index < beneficiaryDonations[_beneficiary].length, \"Invalid donation index\");\r\n        Donation memory donation = beneficiaryDonations[_beneficiary][_index];\r\n        return (donation.donor, donation.amount, donation.timestamp);\r\n    }\r\n        function getContractBalance() public view returns (uint256) {\r\n            return address(this).balance;\r\n        }\r\n    function _burn(uint256 tokenId) internal override(ERC721, ERC721URIStorage) {\r\n        super._burn(tokenId);\r\n    }\r\n    function tokenURI(uint256 tokenId) public view override(ERC721, ERC721URIStorage) returns (string memory) {\r\n        return super.tokenURI(tokenId);\r\n    }\r\n    function supportsInterface(bytes4 interfaceId) public view override(ERC721, ERC721URIStorage) returns (bool) {\r\n        return super.supportsInterface(interfaceId);\r\n    }\r\n\r\n}",
  "sourcePath": "C:\\Users\\tadyy\\Documents\\BlockChainProject\\contracts\\DonationPlatform.sol",
  "compiler": {
    "name": "solc",
    "version": "0.8.19+commit.7dd6d404.Emscripten.clang"
  },
  "schemaVersion": "3.4.4",
  "updatedAt": "2025-06-05T04:50:01.645Z",
  "networkType": "ethereum",
  "devdoc": {
    "events": {
      "Approval(address,address,uint256)": {
        "details": "Emitted when `owner` enables `approved` to manage the `tokenId` token."
      },
      "ApprovalForAll(address,address,bool)": {
        "details": "Emitted when `owner` enables or disables (`approved`) `operator` to manage all of its assets."
      },
      "BatchMetadataUpdate(uint256,uint256)": {
        "details": "This event emits when the metadata of a range of tokens is changed. So that the third-party platforms such as NFT market could timely update the images and related attributes of the NFTs."
      },
      "MetadataUpdate(uint256)": {
        "details": "This event emits when the metadata of a token is changed. So that the third-party platforms such as NFT market could timely update the images and related attributes of the NFT."
      },
      "Transfer(address,address,uint256)": {
        "details": "Emitted when `tokenId` token is transferred from `from` to `to`."
      }
    },
    "kind": "dev",
    "methods": {
      "approve(address,uint256)": {
        "details": "See {IERC721-approve}."
      },
      "balanceOf(address)": {
        "details": "See {IERC721-balanceOf}."
      },
      "getApproved(uint256)": {
        "details": "See {IERC721-getApproved}."
      },
      "isApprovedForAll(address,address)": {
        "details": "See {IERC721-isApprovedForAll}."
      },
      "name()": {
        "details": "See {IERC721Metadata-name}."
      },
      "ownerOf(uint256)": {
        "details": "See {IERC721-ownerOf}."
      },
      "safeTransferFrom(address,address,uint256)": {
        "details": "See {IERC721-safeTransferFrom}."
      },
      "safeTransferFrom(address,address,uint256,bytes)": {
        "details": "See {IERC721-safeTransferFrom}."
      },
      "setApprovalForAll(address,bool)": {
        "details": "See {IERC721-setApprovalForAll}."
      },
      "symbol()": {
        "details": "See {IERC721Metadata-symbol}."
      },
      "transferFrom(address,address,uint256)": {
        "details": "See {IERC721-transferFrom}."
      }
    },
    "version": 1
  },
  "userdoc": {
    "kind": "user",
    "methods": {},
    "version": 1
  }
}